:020000040000fa
:080000000002040000000000f2
:020000040000fa
:10000800d2020000d8020000f4020000de02000064
:10001800e4020000ea020000f8020000f00200001a
:10002800f0020000f0020000f0020000f002000000
:10003800f0020000f0020000f0020000f0020000f0
:10004800f0020000f0020000f0020000f0020000e0
:10005800f0020000f0020000f0020000f0020000d0
:020000040000fa
:100400000fc027000eff28000e018800000000002a
:10041000000020000000e000020032000001200087
:10042000200288000c000700003c2300010020008f
:100430000f000700000020000000e0000200320072
:100440000000020000000000d423020000000000b1
:100450000040da000000fe00804e27000000e000af
:1004600002003200102020009001880000000600e9
:10047000a1028800800078000000eb001a0037001d
:10048000e280400054a0b4009101ba00e280400034
:1004900054a0b4009102ba00e280400054a0b4001d
:1004a0000002eb00472bde00f507b200a601880032
:1004b000602ce10008003a000049eb000201e8006e
:1004c000020039003420ec0002f0a0008301e900b2
:1004d000f9ff3e00040037006128e100010032000e
:1004e0000082eb00040007001101ba000200e000e6
:1004f000e3ff3a000000060004d0a300e20f490029
:100500001c003900810278003549ba000201e80078
:10051000020039003420ec0002f0a0008301e90061
:100520000f0032002549ba000201e800020039003c
:100530003420ec0002f0a0008301e9000800320042
:100540000400e0000600320015c9ba000201e8000c
:10055000020039003420ec0002f0a0008301e90021
:100560008180e80054a0b4000300e000e2ff3a00fc
:10057000000006009102ba00055978008301e900e5
:10058000f7ff3200c82ade00055978008301e90030
:10059000f3ff32000400e000f1ff320011d9ba008d
:1005a000eeff37000000fa00c028a900ffff370067
:1005b0000000fa00c068a900ffff37000000fa0041
:1005c000c048a900ffff37000000fa00c088a9005a
:1005d000ffff37000000fa00c0a8a900ffff3700a6
:1005e0000000fa00ffff37000000fa00ffff3700ad
:1005f0000000fa00ffff37000a00fa00e20f500087
:1006000022003e0004528300e10f52000600320037
:1006100087232000462320002423200005232000d8
:10062000e08f530004003a00872220004622200079
:100630002422200005222000000028001500600070
:1006400003003a00800b780007002800958a7300a9
:10065000054020009482620001003a0014a0a0002e
:100660008202780006003700940378000710b20079
:10067000fdff3200b103fb00070b78008502e900a3
:10068000e08f5200f8ff3a000800370034002000e5
:100690001007980032079800040f7800210798008f
:1006a0000e007800f60507003e0190000200780079
:1006b0000080fa00000006003200f80001c0fe00d1
:1006c0004600f8005000f8000220200032028800a6
:1006d00002002800130020008019dd000281710053
:1006e00082028800010078000101780026002000c5
:1006f000470020008301e900038008000700000094
:100700000110e100040034001102be0092087800dc
:10071000e2307b000489be00878040001219780017
:100720005000f9004600f9003200f9000000060010
:10073000889fbe008a9fbe008c9fbe008e1f7800df
:100740004400f800070f2000270288003200f8005c
:10075000811f78000f07780007f02f000338e100b1
:100760004800320003d0fe0004018000bd51830028
:100770000500250019002000804cdd008904d00010
:100780000f854400080031000505550006003100c2
:100790008d844400040031008f8444000200310045
:1007a000848654003000390019002000804cdd00a0
:1007b0001300200002047800800678008904d1002c
:1007c000424edd00010578000302e90004800800c4
:1007d00020000000000000008a0546004218dd00ed
:1007e0000902e90004800800180000000000000071
:1007f0004620c3003200f80001c0fe0000000000e7
:100800003b0252003200f900df35c100080440000d
:100810001381c2003200f80001c0fe000000000099
:10082000ab825200264dc5003e85c400bb00cd0002
:10083000bb80cd003a00ca002a80ca003200f9000d
:100840000700c9000580c900ba00cd00ba80cd00fc
:100850000a054600020478008301d0008d06e900f5
:10086000d6ff3c002f00370019002000804cdd002f
:100870000f0478008906e9000d800900b21f780096
:100880000801780001c0fe0019002000804cdd0046
:100890001300200002047800800678008904d1004b
:1008a000424edd00010578000302e90004800800e3
:1008b00018000000000000008a0546004218dd0014
:1008c0000902e90004800800100000000000000098
:1008d0004620c3003b025200df35c100080440003f
:1008e0001381c200ab825200264dc5003e85c40074
:1008f000bb00cd00bb80cd003a00ca002a80ca00f0
:100900000700c9000580c900ba00cd00ba80cd003b
:100910000a054600020478008301d0008d06e90034
:10092000deff3c008e0778004f0078003200f900af
:100930004400f9004f0778004f06be004f05be0087
:100940004f04be0000000600ea874700889fbe00f3
:100950008a9fbe008c9fbe008e1f78000004be00e0
:1009600002002000037024000603070080067800c0
:10097000010678006011b8000800be0003020700fd
:10098000e00f50003b0035000d0078008c0078002f
:1009900026020700ff010700000378000107780026
:1009a000060078008e00780086bf9f001a020700bc
:1009b0000004be000200200003f02300f102070043
:1009c000f0b79f00e1b79f00180207000005be00c6
:1009d0000801be000d0078008c037800000278004a
:1009e000870278000400be00b3000700800678008c
:1009f000010678000200200003f023000d027800b9
:100a00008c0278000400be00e001070000017800bd
:100a1000e00f51007f0034000200200003f82300a3
:100a20000800be00a5000700da01070000037800f7
:100a300001077800860178000e0178000300780035
:100a400082007800f2ff2700820f5000e08f5800ec
:100a500002003400f0ff2700010020004f0778005b
:100a60004f06be004f05be004f04be00af00b100f0
:100a7000000006000d0078008c007800ec000700f4
:100a8000c4010700f0b79f00010778008e007800ce
:100a9000e10107000004be000d0178008c01780020
:100aa0000800be00e901070000017800e00f5100d6
:100ab0000a0032000200200003f823000800be00f4
:100ac0007d000700b3010700f0b79f000107780021
:100ad0008e007800d00107000004be000200200054
:100ae00003f023000800be00a6020700e0b79f0045
:100af000d1b79f00cd0107000005be000801be0070
:100b00000c03be0007027800860278000400be00d5
:100b100069000700800678000106780002002000c6
:100b200003f023000d0278008c0278000400be0060
:100b30009601070000017800e00f51001800340012
:100b40000200200003f823000800be005b0007003d
:100b500090010700f0b79f0001077800ffb19700f0
:100b60000e0178000300780082007800020028005f
:100b7000f3ff2f00820f5000838f5800b7ff3d0016
:100b80000200be004f0778004f06be004f05be00b2
:100b90004f04be00af00b10000000600b5ff3700f3
:100ba0000200200003f023000c00be0001027800c8
:100bb000800278000400be00720107000006780081
:100bc000e00f5600e5ff3a000a01be00efb29700c1
:100bd0005fb29700050078008400780036000700b7
:100be0000001be00350007006a0107008c0f5000ad
:100bf000daff32000200200003f823000800be00e4
:100c00002e00070063010700f0b79f00010778007e
:100c1000d2ff37000200200003f023000c00be00ca
:100c200001027800800278000400be005501070030
:100c3000000678000fbb9700e00f56007dff3a00da
:100c40000a01be00ffb297006fb29700050078005e
:100c500084007800180007000001be00170007009c
:100c60004c0107000fbb97008c0f500071ff320042
:100c70000200200003f823000800be000f00070058
:100c800044010700000378000107780069ff37007e
:100c9000cf80de00600107000200200003802300f7
:100ca0003802070080017800010178000300780015
:100cb000820078000000060003f0a200889fbe00ba
:100cc0008a9fbe008c1f78009d010700a40133009d
:100cd0006450e1004f0032006420e1005200320015
:100ce00003826c0007003b000905d0000306d0001a
:100cf000820f54000c065d00020039000200320031
:100d000089017800030678008582550004003d00c3
:100d10000003fd008103fd008502ea008b8542008f
:100d2000840f720002003b0060001000e080180099
:100d30006011b8000005eb007a28e1000a003900d4
:100d400006007800c75ddd00f707b20087807500f8
:100d50002d003700828171000a0178006105600072
:100d60008180d1000080d3008502e900f9ff3b00bb
:100d7000060440008784480002003b006004140021
:100d8000e0841c000988a300070032008a817100fa
:100d900082817100610164008904d1000884d3005c
:100da0008b05e800170037000978a30013003a000c
:100db0000b00e000130034008b05e9000804440038
:100dc00089844c000a4474000978a3000d003a009d
:100dd0000b00e000070034008b05e9000804440024
:100de00089844c0001003a000b0020000978a30020
:100df000f7ff32000001eb00020037008281710032
:100e00000a017800130107000cf0a70001f0a00010
:100e10005c0137006420e10002003a00838f6c001f
:100e20005c0133000801be000200be00550137001e
:100e30000001eb00ac0007000400320002002000bb
:100e400003f8230001f0a6009cff07000000060045
:100e50000081eb00ff013700889fbe008a9fbe0023
:100e60008c1f7800360107003d01330003866c00bb
:100e70006450e1002e0032006420e10033003200b3
:100e80006150e1002f0032006120e10031003200aa
:100e900085855500eb07b0000900200008042000fc
:100ea000050037000804440089844c000a00310022
:100eb0000603430087834b000001530081815b00e0
:100ec000f8ff33000203be000800a000080444003d
:100ed00089844c00f6ff3900c639dd0083017300b8
:100ee00001003200130020008904d1000884d300df
:100ef0000998a300050032000800a7000300a00025
:100f00008904d1000884d3008b05e8008904d1004e
:100f10000884d3000001eb000281d200cd0007005d
:100f200001f0a1000cf0a70001f0a00015013700ae
:100f30006420e100170132000801be000200be007b
:100f4000f7ff37006120e100120132006000b800b5
:100f5000f3ff37000000200001f82700f0ff370002
:100f6000889fbe008a9fbe008c9fbe000004be000a
:100f7000de0007000800be006420e10048003e00db
:100f80005500320072212700132b24007f00070038
:100f900047003c000800be00c2ec2800e32c2c00f7
:100fa00078000700470035000800be0001f0a100ee
:100fb00002002000033823007200070043003500c0
:100fc0000800be00b2a32a0083fb23006d010700c6
:100fd0000200200003f0230001f0a70003f0a000ae
:100fe00036ff07006b0007000005be008a000700ff
:100ff00001f0a2000006be000200280013f3230047
:10100000600107000801be002cff0700809fbe00a2
:101010000c00be0032082800e3952b0059010700a0
:101020004f01be0025ff07000006be000001be0004
:1010300054010700809fbe004241250083b8230071
:10104000500107000200200003e823001bff0700f7
:101050000c01be004b0107000006be004f00be00a1
:10106000f2f92b00c3d42300460107000200200040
:1010700003f0230011ff07000c01be000eff070064
:101080000001be000c00be0073ff0700020020003c
:1010900003f0230009ff070061014500c0000700bd
:1010a0004f06be004f05be004f04be000000060004
:1010b00001f82700000020002202200002808800a2
:1010c000f7ff37006000b800fbff370001f823008e
:1010d00000002000f2ff370009f8a300f0ff320003
:1010e0006000b800eeff3700889fbe008a9fbe00f8
:1010f0000003be007d000700850578008281520054
:10110000020020006220e10004003a00f307b10071
:10111000040035007718e100040035000600be0029
:10112000140037006000b8000f003700f50f2000f2
:10113000faff2f008502d1000a85d3008301e90060
:10114000fcff3b008184620000046500890f74008d
:10115000f2ff32008582ea000a85ea00818462009b
:10116000000465003b00070007f0a70001f0a000a5
:101170000081eb000200e0004f05be004f04be00fe
:101180000000060014002000dd013700f4ff2f00ee
:10119000db0137000001be00540007000470a70007
:1011a00003f0a1006509b100160032000d00350002
:1011b0006828e10006003500f0ff2f00f1ff27004e
:1011c0000300e00013003b000100280000000500c0
:1011d00000004000818048008502e900fcff3a00e1
:1011e00008003700f88f420002003c008000eb004e
:1011f000000005008100d1000080d3008502e800d6
:10120000fcff3a000300e00002003b006000100019
:10121000e0801800000006004f89de00820178009f
:10122000d20137006011b800e00137000001eb0087
:10123000adff0700040032000200200003f8230085
:1012400001f0a7009cfe070000000600040020003b
:10125000ab01370081002000618055000b003d008c
:101260000b00200061fe2f000100e1001d00340092
:1012700082817100610164008904d1000884d30077
:101280000000e800faff3a007100200061006400ed
:101290000300700002006000090032006104440095
:1012a000e0844c000988a500050032008b05e800a9
:1012b0006808e10002003a008904d1000884d300e4
:1012c000f20f20000258e10005003d00c75ddd007f
:1012d000f907b20089807500080078000000060058
:1012e0000bf827008b00780000000500c70ade001d
:1012f000f107b200f50fb20008003200e1cf420062
:10130000020032000170a00024000500810f70006f
:10131000010032000408050044000500810f700040
:1013200002003a00140005008502e90000004000b8
:1013300081c04800fcff3b000170a00024000500b4
:101340000004be00e9ff07000003be000405be0064
:101350000200be00e5ff0700844f75000000060094
:101360000200be006450e100050036006420e10088
:10137000020036000968a30001003a000800be0020
:101380000160a0004f0678004f05be004f04be006c
:1013900000000600f0ff2f00f1ff2700f9ff3700e3
:1013a0000003be00d1ff07006220e100020032000e
:1013b0000600be000000060085024100e30f200089
:1013c0000328e10005003c00a3fe2f000328e100f4
:1013d00007003d000500200001003700f50f200048
:1013e00020022000008088006000b800080037005c
:1013f000130020008381520005003d008100d100d0
:101400000080d3008301e800fcff3a0005002000c3
:10141000c72add00f107b2008580700007f0a70041
:1014200001f0a00000000600889fbe008a9fbe0059
:101430008c9fbe0025010700850478000005be00d2
:101440006420e10049003e006220e1000300320018
:10145000090035000bf8a300440032000bf8a3008c
:10146000080032001002200000808800f0ff2f00ea
:10147000f1ff27003d00370001f82f000000200099
:101480003a0037003d0007000bfe07000006be00d3
:101490000a00be00324f200053f323003bff070039
:1014a000060034000c00be003400070002fe0700f6
:1014b0000006be000a00be00020037008904e900f1
:1014c0000c00be002d0007002e0007002b000700b7
:1014d000fafd07000001be000c00be005efe070022
:1014e0000005be000001be00260007000006be0089
:1014f000a2f32300430d2c00f0fd0700809fbe00e7
:101500000c00be00d2e32700d3f02b001d00070023
:101510004f01be0050fe07000006be000a01be00db
:10152000180007000a01be00e4fd07000006be0027
:101530006148b90038ff07000005be0032082800e6
:10154000e3952b000f0007000c01be00dbfd070038
:101550000006be000a00be000200280013f32300ac
:10156000080007000c01be00d4fd07004f06be00b6
:101570004f05be004f04be000000060003f023002c
:1015800002000500889fbe008a9fbe008c1f780065
:101590006bff070072ff330003866c006450e100ac
:1015a000240032006420e100270032006150e10095
:1015b000220032006120e100210032008b854200d0
:1015c000eb07b1000134b800003ab800080442004b
:1015d00089844a00013ab8000030b8008880400091
:1015e00009014a00040033000000400081804800e7
:1015f000020149008b05e900c909dd008301700083
:101600000100320013002000c814de004814dd0081
:101610004709de001200b200c808de00088470002e
:101620000cff070001f0a1000cf0a70001f0a000e2
:1016300054ff37006120e10056ff32000801be0070
:101640000200be00f7ff37006150e100fcff3a00e6
:1016500050ff3700889fbe008a9fbe008c9fbe004f
:10166000820578000004be0020ff07000800be00cd
:101670006420e1000700390002003a00f1ff270072
:10168000f0ff2f000160a0001202200002808800fd
:10169000550037006120e10003003a000b00a7006d
:1016a00001f823005000370001f0a10002002100e2
:1016b00093642400b3fe07000800be000400350058
:1016c000b2fd2000930c2400e70007000004be00d8
:1016d0000005eb000b00a6004f0dde0001f0a1009d
:1016e0000004be0032982f0023ea2300a5ff070064
:1016f0000001eb0003f023000b00a70003f8230018
:101700006efd0700a3fe07000000a7000a00a2006c
:10171000c1fe07000b00e0000300320002002000c1
:1017200003f0230064fd070001f0a2000006be00e4
:10173000020020009304240092ff07000801be006d
:101740005efd0700809fbe000c00be0022a22a00a2
:10175000d3a723008bff07004f01be0057fd0700f2
:101760000004be0001f0a100020020000398230045
:1017700084fe07000800be00190035000001be000d
:1017800080ff07000006be00b2c52900e362230007
:101790007cff070022222b00f3942b0047fd07005b
:1017a0000c01be0077ff0700e273280083c023000e
:1017b00042fd07000c01be0072ff070042aa2a008a
:1017c000a3e22b003dfd07000c01be006dff0700ea
:1017d0000801be006bff07000801be0037fd0700cf
:1017e0000a00a70001f0a2004f06be004f05be0090
:1017f0004f04be0000000600889fbe008a9fbe0006
:101800008c1f78000004be00b8fe07000478a30017
:1018100026003a006120e1002500320009f8a3000b
:1018200025003a006420e10021003200f507b100f4
:101830000508a3000200320000004000818048003b
:101840006044b800031020000200200000004000a7
:10185000818048000805440089854c000a05410044
:101860008b8549000a0550008b8558000300330022
:101870000a00be0002047400838474008301d10056
:101880000281d300830f7100f0ff3a008904d10078
:101890000884d3006001490082017800c1adde00f8
:1018a000fb07b0006bfe0700b6fe37000960a00022
:1018b0000800be00b3fe370012022000028088003c
:1018c000f0ff2f00f1ff2700aefe37000003be003f
:1018d00086fe07006220e100020032000600be0022
:1018e00005000500e507b100f107b20004f0230090
:1018f0008480700007f0a70001f0a000240005001c
:10190000889fbe008a9fbe00841f78008cfe07005f
:101910004f00780011003300f0ff2f00838f6c0020
:1019200006003b00040565000a00a7000800370018
:1019300009f0a6001000200008003700820f5400b4
:10194000838f5c00030039001000200001003e007e
:101950000000200009f0a7000000ea004f05be00cb
:101960004f04be000000e00000000600881f780061
:10197000030478000300e00007003d006000100051
:10198000e080180060011900e081190002003b00ae
:1019900001f02d00030037000400070008f0a70045
:1019a00001f0a0004f04780000000600889fbe00f0
:1019b0008a9fbe00008270000402710004827100e0
:1019c000260032000004be000200be006011b80014
:1019d0006b092000950220000182cf000a00390027
:1019e0000541b1000082cf00070039000541b10078
:1019f0000982cf00040039000541b1000882cf0000
:101a0000010039000541b1000542520012003200c8
:101a10000a003b0082817100610164008100d100f5
:101a20000080d3008984d3000884d3008b05e800ac
:101a30000442e800f7ff3a000700370008044400ba
:101a400089844c0000004800818048008b05e90033
:101a50000442e900f9ff3a00fefd07004f05be0011
:101a60004f04be0000000600040020000000370004
:101a7000889fbe008a9fbe008c1f78004f26dd0025
:101a80002ffe070036fe33006120e10043003200e4
:101a90006250e10041003e003e0039006420e10058
:101aa0003c003200058255000f003b000402e800b4
:101ab00038003a00800f5300818f5b0035003400fe
:101ac0000800be0003f0a10001f0a60003f0a00092
:101ad0000cf0a70079fc07002afe3700060343003c
:101ae00087834b000c4646000005530081855b0050
:101af000020033000a03be000c00a0000402e9004b
:101b0000f6ff3b00850578000602430087824b0004
:101b100004003a006000b80009f0a70001f0a0003e
:101b200018fe37000002520081825a000704e000cc
:101b3000040033000603430087834b008b05e90054
:101b4000faff3700090578000604be000203be0054
:101b50006011b800bffd0700e00f5200e08f5a008f
:101b60000700350002003c000c08a300040032000e
:101b70000601be0003f0a0000cf0a7004ffc070018
:101b80000a85680001f0a1000af0a70001f0a0009a
:101b9000fcfd37000800be00fafd370010022000ef
:101ba0000cf0a60000808800fafd37000000fa0063
:101bb000889fbe000004be00050037000000fb0047
:101bc0008900780028000700e10f4000040032007f
:101bd00038407800e04f5000f8ff3a000000eb007a
:101be0004f04be000080fa000000060041a026005d
:101bf0000000fa00881f7800ecff070041a02600d3
:101c000000047800a00020001700070008007800fa
:101c10004f0478000080fa000000060041a0260072
:101c20000000fa00100007000080fa000000060023
:101c300040a026000000fa0068015700ceb89700c7
:101c4000610507000080fa000000060040a02600a1
:101c50000000fa0068015700ceb897005a05070047
:101c60000080fa00000006000000fa00889fbe0015
:101c7000010478008084eb0038029000e2026200e8
:101c80003b00320004037800980290000620b20066
:101c900002003a00e08f520035003a000490a000a4
:101ca0008004780034049800f90fb200e08f5200ed
:101cb00002003a00a8029000050c7800ea8f540058
:101cc00005003a000408b20003003a0088007800da
:101cd000d0002000e4ff070018029000d802900016
:101ce000850f52000b0032000402e80015c0b3005b
:101cf0001404980018027800094a7800040ce800df
:101d0000a4a32600054a7800ea8f540018003a0080
:101d100005003700094078008800780018000700a7
:101d20008004780012003700380290000410b200de
:101d30000f00320018019000a800900048009000a9
:101d40002dfa070018029000840f500004003200a2
:101d5000380290000403b300340498008084eb0040
:101d60000002eb001404980028029000040c780094
:101d7000090078004f04be000080fa000000060051
:101d80000200fa00889fbe0001047800004f78002e
:101d900038029000840278000504b200020032008c
:101da0000000fb0033003700e202620005003a0049
:101db0000403b30015049800340498000080eb007d
:101dc0002c003700d8049000e08f540006003a0041
:101dd000120020008e0078004800900006fa0700ec
:101de0001904980022003700a8029000e08f5200ea
:101df00008003a00e5a326000430a000250498005e
:101e0000050c780034049800250020005504980043
:101e10001504980018019000a80090004800900058
:101e2000f5f90700280290008082eb001504980065
:101e30001e4a7800040ce800a4c0b3009e4f1200b4
:101e40000b003a00380290000410b2000800320083
:101e500018019000a800900048009000e6f90700e3
:101e60000002eb001404980028029000040c780093
:101e70001e00fb004f04be000080fa0000000600b8
:101e80000000fa0000c0da000080fa00000006003e
:101e90002800fa00889fbe008a9fbe008c9fbe006b
:101ea00007067800878669000c003b000304780071
:101eb0008704780008f0a10009f0a100840f500009
:101ec000858f5800860f5900890f5c00030033008e
:101ed0000cf0a20001003a000cf0a100fe00070087
:101ee0006400e1005f003200780147006408e1000f
:101ef000610032006c014700748557003200be005b
:101f00001201be003a04be001a05be001e03900076
:101f1000be0a90008503530006003d000004fd004a
:101f20008104fd000205fd008305fd008703ea0032
:101f3000050378000df8a3000400320060041400cb
:101f4000e0841c0060051d00e0851d006022b800d3
:101f50007d0320000d38e1008006eb000b00390006
:101f60004433dd00f300b200830173003900370011
:101f7000848272000d027800e10664008b85d10036
:101f80000a85d3008984d3000884d3008703e9003d
:101f9000f7ff3b0008004000898048000a01490023
:101fa0008b81490004003b0060001000e0801800b5
:101fb00060011900e08119000358a30009003200f4
:101fc0008d82720084827200610260008301d10000
:101fd0000281d3008180d3000080d3000603e80093
:101fe0001b0037000348a30017003a000600e0007a
:101ff000170034000603e9000d00a30000004800ac
:102000008180480002014900838149000348a30000
:102010000f003a000600e000090034000603e90062
:10202000000040008180480002014900838149008e
:1020300001003a000003eb000348a300f5ff320063
:102040006022b8000200370084827200618266005c
:102050007500070003f0a1000cf0a70003f0a0003a
:10206000b1003700640147006408e10002003a0053
:102070000df8a300a9003a003200be001201be0014
:10208000a90037008f1fd1000c0307008f87e900dc
:102090000000e00000000600809feb00070307003f
:1020a0008f87e9000000e000000006002800fa0029
:1020b000889fbe008a9fbe008c9fbe0003866b0077
:1020c000850007006400e100440032006408e1007c
:1020d0004a0032006100e100460032006108e10080
:1020e00049003200ec0647006000b8003d02be0027
:1020f0003d03be00f48657006011b8003d04be00e9
:102100003d05be007d0320000b0037000000a0004d
:102110008d06e900130032000402420085824a0065
:1021200006034b0087834b0000004000818048007d
:1021300002014900838149000802520089825a0045
:102140000a035b008b835b00f0ff3b000802420048
:1021500089824a000a034b008b834b008d06e900fd
:10216000edff3a008482720086827200f707b200a7
:102170008782720001003200150020001e049000ca
:102180003e0b900006035400e63fb0000368a30036
:10219000070032000000a7000500a0008301d10065
:1021a0000281d3008180d3000080d3000603e800c1
:1021b0008301d1000281d3008180d3000080d3004d
:1021c0000002eb000482d2001700070003f0a10018
:1021d0000cf0a70003f0a000530037006402470092
:1021e0006408e1004d0032003400be003401be003e
:1021f000f6ff37006108e100480032006011b800c6
:102200006000b800f1ff370003ff27000200200044
:10221000fbff3700801feb00a80207008f87e90053
:102220000000e00000000600180020005700200019
:10223000080453000d003d000600200097fc2f000d
:102240000740e1001e0034008482720061026000d9
:102250008301d1000281d3008180d3000080d300ac
:102260000804e800f8ff3a0047002000610460001d
:1022700005047400040464000d0032006100400095
:10228000e080480060014900e081490003b8a500f2
:10229000070032000603e8006538e10004003a0058
:1022a0008301d1000281d3008180d3000080d3005c
:1022b000f87f20000830e1000300350008037800b3
:1022c0006000b8006011b8004433dd00f300b200d4
:1022d0008301730000000600680447000294be00fa
:1022e0000094be00fc0447008694be008494be00a7
:1022f00009007800ba02070008007800b802070059
:1023000099007800814f70000b003b000800be0070
:10231000930207004f00b10003003700f3ff2700ce
:10232000f2ff2f006110b9004f06be004f05be003e
:102330004f04be000080fa00000006008103780010
:10234000eafb07000001be006000b8000478a300ab
:1023500013003a006220e10015003e000d00390034
:102360008301d1000281d3008180d3008301d10099
:102370000281d3008180d3008301d1000281d30088
:102380008180d3000538b000c42add00f300b2001c
:102390008381720007f0a70003f0a0000000060090
:1023a000f3ff2700f2ff2f006110b900fbff370099
:1023b00003ff2700f7ff37001400fa00889fbe00d4
:1023c0008a9fbe008c9fbe000004be000205be00b6
:1023d000680047000a90be000890be008002070017
:1023e0000070a7000bf0a1000bf8a30020003a003a
:1023f0009e0990000e099000fe0090006e00900073
:102400009e0290003443200084825200c6ff3200b6
:102410000a003c00b4fc2f000428e1001400340042
:102420008301d1000281d3008180d3000080d300da
:102430008502e800faff3a00bbff3700b400200035
:102440000428e10007003c000000400081804800b3
:1024500002014900838149008502e900faff3a0040
:10246000b1ff370003002800020020000100370000
:102470006011b8006000b800abff3700889fbe0055
:102480000082700004027100048271002400320096
:1024900036432000c50020008383cf000a003900a6
:1024a0000541b1008283cf00070039000541b1002a
:1024b0008183cf00040039000541b1008083cf0043
:1024c000010039000541b10085c353006022b80006
:1024d000120032000a003b00848272006102600038
:1024e0008301d1000281d3008180d3000080d3001a
:1024f0000603e8008743e800f7ff3a0007003700cb
:1025000000004000818048000201490083814900a9
:102510000603e9008743e900f9ff3a0042ff07009c
:102520004f04be00000006001400fa00889fbe00a1
:102530008a9fbe008c9fbe00040678000004be0087
:102540000205be00680047000a90be000890be0069
:10255000230207006200e1000800be000a01be007d
:10256000040020000b003a001e029000e43fb1007e
:102570006e009000fe0090000e0990009e099000f1
:10258000f300b20005fe2300858171000bf0a70067
:1025900003f0a000040e780063ff37002800fa0063
:1025a000889fbe008a9fbe008c9fbe0003866b0082
:1025b00049ff07000028a30064003a000128a30097
:1025c00067003a000008a30062003a000108a30077
:1025d00065003a001e009000be0890008106400091
:1025e000ed3fb100f4805700ee019000111ab800e1
:1025f0008e099000311bb8009e099000311cb80074
:10260000511db800f485570046000700fe019000f8
:102610003a0007008b85e8003e0007008e09900015
:1026200040000700ee019000340007008b85e800b1
:10263000380007008e099000400007009e099000b6
:102640001b18b800890440000a854800fe0190006c
:10265000340007008b85e80038000700ee01900089
:10266000300007008e0990001b18b8008904400054
:102670000a8548000a98a30008003a0004024200b4
:1026800085824a0006034b0087834b0008044c00f8
:1026900089844c000a054d008d06e9008482720091
:1026a000850273004c3add008502720001003200a1
:1026b00015002000443ade001400b2004538de0068
:1026c000cb45dd000b007000c540de00cb4ddd00ca
:1026d0008b8070004549de00cb55dd000b01710099
:1026e000c551de000d037800cffe070003f0a10006
:1026f0000cf0a70003f0a0000bff37001b18b80078
:102700008502400006834800e0834b0060044c00d3
:10271000070037001b18b8000603400087834800f5
:10272000faff37001b18b8008703400008844800f0
:10273000e0844c0060054d00000006001b18b80046
:102740000804400089844800faff37000108a3000c
:10275000f2fe3a005800be005801be00e3ff370009
:102760000008a300edfe3a0009047800f9ff3700e5
:1027700007f0a200c6fd37006022b8000602200064
:102780000000d0008180d2000482d2008582d20075
:102790000000a0000202520083825a0003003100b0
:1027a0000202420083824a000000a1000603e90001
:1027b000f3ff3a0000000600020ab900001bb9004e
:1027c0000200b800810042008100430000000600c2
:1027d0000000fa00889fbe008a9fbe003004be0041
:1027e0002005be000404440085844c0006054d000d
:1027f00087854d000898be000a90be000440e100a5
:1028000005c8e10006d0e10007d8e1000200310070
:10281000680040001008e8004f05be004f04be00ed
:102820000080fa00000006001000fa00889fbe0039
:102830008a9fbe000605be000404be003002be0032
:102840002003be00049fbe000697be0011002000ba
:102850000802520089825a000a035b008b835b00e6
:102860004407980055079800660798007707980076
:102870000498be000698be003e02be002e03be00b5
:102880000820e10009a8e1000ab0e1000bb8e1006e
:10289000010039008000eb004f05be0010881000d9
:1028a0004f04be000080fa00000006001400fa0089
:1028b000889fbe005b0007008a9fbe008c9fbe0001
:1028c0000006eb004c0798003c0798002c07980086
:1028d0001c0798000c0f78000605be000404be001b
:1028e0000d0420004e039000be02900086034300ba
:1028f0002e029000e00f530003003d002a00070065
:10290000b3ff07000200370027000700c6ff0700db
:10291000ce029000150f9800e08f5200090035009c
:102920004500070014002000050020006033b800b7
:1029300000007200818072000201730083817300c5
:10294000380007000c06e8008d0f5600e5ff3a003e
:102950001e0a9000e00f520004003d000802be0075
:102960000a03be000e00780099ff07004eba9700d8
:10297000e00f520006003a003e04be002e05be00e5
:1029800058079800690798007a0798000b0f98007d
:102990004f06be00280007004f05be004f04be00d2
:1029a0000080fa00000006004f2bde002200070026
:1029b00086837300858242004f23de00470798001c
:1029c0008682720004024200350798009e02900041
:1029d0004f2bde0085824200060272002407980019
:1029e0001e0278004f23de0004024200868272003d
:1029f000150798004f18de00000f72000e00070048
:102a00000802be000a03be000000400081804800aa
:102a10000201490083814900020007000e0078008e
:102a200000000600500798006107980072079800a0
:102a3000030f9800000006005e009000ee0090007a
:102a40007e0190008e099000000006000000fa0050
:102a5000881f780018002000881f780093ff070067
:102a60008f87e9004f0478000080fa00000006001c
:102a70000000fa00801feb008cff07008f87e90041
:102a80000080fa00000006000000fa00889fbe00e7
:102a90008a9fbe00e00f5000e08f5800e00f590001
:102aa000e08f59000c003d006044b8006055b8004c
:102ab0000000540081805c0002015d0083815d00a4
:102ac000180020001600070008003d00190007004c
:102ad0000004eb00050037000004eb0010000700c5
:102ae00002003d001300070018002000d7ff070078
:102af000e00f5400060032006022b8006033b800d6
:102b00000000520081805a0002015b0083815b005b
:102b10004f05be004f04be000080fa000000060012
:102b2000e00f5200e08f5a00e00f5b00e08f5b0087
:102b3000000006006044b8006055b800040254006c
:102b400085825c0006035d0087835d00000006004f
:102b50000000fa00889fbe008a9fbe008c1f78008c
:102b6000e00f5000e08f5800e00f5900e08f59004f
:102b70000d003d006044b8006055b8001c00200006
:102b80000000540081805c0002015d0083815d00d3
:102b90000820e10009a8e1000ab0e1000bb8e1005b
:102ba0000d003d00080037000006eb00e00f52006a
:102bb000e08f5a00e00f5b00e08f5b0006003d00f5
:102bc0006044b8006055b8000402540085825c007f
:102bd00006035d0087835d00a5ff0700e00f560038
:102be000060032006022b8006033b80000005200d6
:102bf00081805a0002015b0083815b004f067800f0
:102c00004f05be004f04be000080fa000000060021
:102c10000000fa00889fbe008a9fbe008c1f7800cb
:102c20000006eb00e00f5000e08f5800e00f590065
:102c3000e08f590007003d006044b8006055b800bf
:102c40001c0020000000540081805c0002015d0037
:102c500083815d00e00f5200e08f5a00e00f5b00bf
:102c6000e08f5b0007003d006044b8006055b8008d
:102c70000c00a2000402540085825c0006035d0083
:102c800087835d007d000700e00f560006003200dc
:102c90006022b8006033b8000000520081805a0002
:102ca00002015b0083815b004f0678004f05be0088
:102cb0004f04be000080fa0000000600889fbe009e
:102cc0008a9fbe008c9fbe000404be000605be00a5
:102cd000809fbe00829fbe002f0007000406780080
:102ce0000800be000a01be002b0007008406780021
:102cf0004f03be004f02be008d4f76007fb097009d
:102d000013003300f0ff2f008b8f6b0006003b0099
:102d10000d0666000c00a7000a00370007f0a600a9
:102d2000100020000a003700880f5200898f5a00d7
:102d30008a0f5b008b8f5b000300390010002000be
:102d400001003e000000200007f0a7000000ea009c
:102d50004f06be004f05be004f04be000000060037
:102d6000e48240001078a3000700320064024000b3
:102d70001178a3003400be001401be00040032002c
:102d80000330a700000006003500be001501be009c
:102d90000330a0000000060005ff27000582610047
:102da000070032000428e100010032002400050081
:102db0000600070001003a00440005000408050071
:102dc00002000700f9ff3a00140005006f8261005d
:102dd0008102700085027100850272000000060009
:102de000800078005002be005003be004439de006f
:102df000f700b200f37f20000301610009003200f8
:102e00000218e10016003a00850172008301730088
:102e1000838173000008200015003a004000200064
:102e200013003700850172008301730083817300f2
:102e300005003a0004a8be0006a8be00100020004d
:102e40000b0037000201e9000402420085824a00bb
:102e500006034b0087834b000748a300f9ff3200ad
:102e60000740a00004a8be0006a8be002000200065
:102e7000800098009200980000000600889fbe0025
:102e80008a9fbe008c9fbe000404b8000506b800ef
:102e90008904460060854e000606b8000a05460013
:102ea000e0854e000706b8008b054600040eb8000a
:102eb000890446000a854e00e0854d00050eb800e5
:102ec0000a0546008b854e00060eb8008b054600ad
:102ed0000416b8000a0546008b854e000516b8009a
:102ee0008b054600041eb8008b0546000800be0096
:102ef0000a01be004f06be004f05be004f04be00d3
:102f000000000600d4c6b3000800fa00889fbe0087
:102f10000084fb008a9fbe00844f50002c003600c6
:102f2000898a26004b062000110009000b84d80076
:102f3000720040004300dd000080440081057800fd
:102f40006022b8000600200007fe2300aa0020002f
:102f50005001be004000be0090fd07000002be0010
:102f60000203be00110009008a85d800049fbe003c
:102f70000697be0080057800e9854500c35ddd0049
:102f80008b8544003e00be002e01be003b02be0009
:102f90002b03be0081fd07000002be000203be003d
:102fa000110009000a84d800049fbe000697be00e5
:102fb000010478004344dd00888444003e00be00e4
:102fc0002e01be003902be002903be001d003700dd
:102fd000ea4f500013003600aa002000898a26001c
:102fe000110009000a84d800010578006904400036
:102ff0004355dd004344dd00088444008a844400d6
:103000006022b8000600200007fe23003800be0042
:103010002801be0061fd07003902be002903be0081
:1030200008003700848a26004344dd00080442007b
:103030006022b8000600200007fe23003800be0012
:103040002801be0055fd07004f05be004f04be001d
:103050000080fa0000000600d4c6b3000800fa00a1
:10306000889fbe008a9fbe00e04f500022003d00b6
:103070000040ea000004fb00844f50000a003400c6
:1030800044062000a9002000110009000404d80013
:103090008a8a2600110009008900d800e900400052
:1030a000c308dd0020003700ea4f50000f00340055
:1030b000a4002000110009000404d800848a26001e
:1030c000690040004300dd0000004200430cdd00c9
:1030d000080242005001be004000be005403be0082
:1030e0004402be002dfd0700330037004344dd00dd
:1030f000848a26002d0037000004fb00844f500016
:103100001f00340044062000a9002000110009001f
:103110000404d8008a7f2600110009008900d80025
:10312000e9004000c308dd00810045008b09200054
:103130008a8545003102be002103be003b00be006f
:103140002b01be0015fd07000002be000203be00f9
:10315000110009000904d800049fbe000697be00b4
:10316000010478004344dd00080545003e00be0030
:103170002e01be003a02be002a03be00d9ff37006e
:10318000ea4f500007003400a4002000110009009d
:103190000404d800847f2600690040004300dd005d
:1031a000c9ff37004344dd00847f26000804420045
:1031b0003800be002801be004f05be004f04be000f
:1031c0000080fa00000006005400fa00889fbe004c
:1031d000610f98008a9fbe00721798008c9fbe00f6
:1031e000000678008006eb006000b8006011b800af
:1031f000700f980001179800121798002317980075
:103200005e053700ee08900054c2b3008100e8006c
:10321000610f9800844f500006003a008103780047
:103220008002eb0000c3b30001c2b300b2c2b3001e
:103230000e0037003c0290000404b200040032008b
:103240001c027800004a7800040ee80005003700f0
:103250000000fb008c00780083fa0700e10f4000bb
:10326000460532008d06e800440537000702780065
:10327000d3c2b30037437800834f530009003200b4
:1032800005003c00814f530008003200824f53007c
:103290000c003a0007003700804f530009003a0045
:1032a000060037000530a000f0ff37000500a00041
:1032b000eeff37000510a000ecff37000520a0004e
:1032c000eaff3700e2836200010032000500a1003e
:1032d000e8836200010032000520a1008603fb00a4
:1032e0000703b100e98f53000d003e00040378008e
:1032f0000000eb00b603fb00ea02b9000703b100cf
:10330000048043009603fb00060278000703b10027
:10331000e98f5300f7ff3600002798000a003700b6
:103320008003eb0007279800a7c2b300874f530024
:1033300005003a007e1090000402e800c00078000a
:103340007017980001279800e6c2b300944f13004d
:1033500017003a0005e0a00064435300d44f130067
:1033600003003200040378000000eb00090037007e
:10337000fe1190000402e8004303780073179800e0
:10338000461f9800c0c6b3000d003700ea02b9001e
:103390000480430006027800b603fb000703b10077
:1033a000e98f5300f9ff3600401f9800f5ff370002
:1033b0008003eb0005c0a000471f9800f1ff370015
:1033c00034437800640f9800804f53001600320099
:1033d000c4c6b300844f530009003c006942520048
:1033e000844f53009100320063424200844f5300e7
:1033f00013003200e04f5300e5043200ab00370009
:1034000054c7b300844f5300ac0032006342420003
:10341000844f53000d00320065425200844f530028
:10342000a2003a000c003700f08362000601200081
:10343000010032000600280085027300e0ff37001b
:10344000064f780005a0a0009e003700064f7800c8
:103450000570a0009b0037007e119000064f780099
:10346000420278007217980004047800e00f5200be
:1034700001003a00c8a12600880378000002eb0092
:10348000010037000402e800048343008041eb00a0
:1034900096cf1100fbff3a00840478004e1a90008a
:1034a000e00f520003003200890f5200010031008a
:1034b000840478000002eb008e239000898f530073
:1034c0000100360009825300e88262004527980017
:1034d00035003a00481f9800591f98006a1f98004d
:1034e0007b1f980005c2b3008404780010003700e9
:1034f0003c0290000404b200040032001c02780078
:10350000054a7800040ee80007003700152f9800e0
:103510008c00780000022000d3f907009e2a90005a
:10352000e10f4000010032008d06e8008904e90047
:10353000e08f5400eeff3a004e1c9000de1c90001d
:103540006e1d9000fe1d90000082eb0016003700fb
:10355000bc0290000504b200090032008802780025
:103560009c03780035437800864b7800050478008a
:10357000070ee800e04f53000a003a000a00370047
:10358000880278008c0078003500fb00042f98003a
:1035900005047800b4f907000e2a9000e10f4000fe
:1035a000010032008d06e800890278008504e900f8
:1035b000e08f5200e6ff3a00ce209000e08f5000ee
:1035c0006e04320048279800592798006a2798000f
:1035d0007b27980005c2b3008404780010003700f0
:1035e0003c0290000404b200040032001c02780087
:1035f000054a7800040ee80007003700152f9800f0
:103600008c0078000002200097f907009e2a9000a5
:10361000e10f4000010032008d06e8008904e90056
:10362000e08f5400eeff3a0050043700fe10900087
:1036300070836200410278007117980004007800de
:10364000cf80de00010178008201780040279800d9
:103650005127980062279800732798004800de00e1
:10366000480add0000007200004f7800e00f5300b0
:1036700009003200e04f500007003200e14f4000e7
:10368000050032000ecb90001047980026479800a6
:1036900029002000030037008ecb90001900200085
:1036a000174798000e04e8007cff3700064f7800ab
:1036b0000e0478001900200078ff3700064f7800cc
:1036c000050cb30045279800047020004e209000a0
:1036d0000402600063023200040021000402600062
:1036e0000200320061002000411f98004e2190002e
:1036f00070026100050032007e1090004003be00a1
:103700004002be0070179800060037007e1190003e
:103710004200be007217980008fb07000002be00be
:103720000203be00041f9800151f9800261f980072
:10373000371f98006022b8006033b8000e18900060
:103740009e1890002e199000be1990004dfa0700a7
:10375000e00f50000c003d000e1890009e189000e5
:103760002e199000be19900003f0a200001f9800cf
:10377000111f9800221f9800331f9800ce20900040
:103780003100b300412798000002eb000e189000b2
:103790009e1890002e199000be19900024079800e2
:1037a0006022b8006033b8009afa0700e00f5000ba
:1037b00033003200640247000e1890009e189000fb
:1037c0002e199000be19900057fb07002e009000a4
:1037d000a40020000000e900e300b9001100090086
:1037e0000400d80020079800e00f500002003d00c0
:1037f0000000e900200798002e0490000840ea002d
:1038000015fe07000e1a90009e1a90002e1b9000c5
:10381000be1b900061fb07000002be000203be0059
:10382000740f98000517980016179800271798002e
:103830006022b8000600200007ff230011fa0700ed
:10384000e00f500002003d000804e9000b003700c3
:103850006022b80006002000470224007e08900085
:103860008e1090001e119000ae1190000afa070011
:10387000e00f5000020035000804e8002807980017
:10388000ce1a9000f88f52000f003c0005407800df
:103890009cfd07000002be000203be000e1890004f
:1038a0009e1890002e199000be19900078f907001c
:1038b0000002be000203be00041f9800151f9800fe
:1038c000261f9800371f98002e049000e90f54001f
:1038d00015003c006022b8006033b8000e1890005c
:1038e0009e1890002e199000be19900049fa07000a
:1038f000e00f5000320032000e1890009e18900029
:103900002e199000be199000abfa0700e00f50008e
:10391000e08f5800e00f5900e08f590028003a006e
:10392000e10f5400260034000400200005002e00a2
:10393000b6e02200170124007e0890008e1090004f
:103940001e119000ae119000cef90700e00f50005c
:1039500002003d007304540001003700720454005b
:10396000280798004e409000bbfd07000002be00f3
:103970000203be000e1890009e1890002e199000b1
:10398000be199000740f980005179800161798003c
:1039900027179800c5f9070087fa07000205be003f
:1039a0000004be006000b8006011b800001f98005d
:1039b000111f9800221f9800331f9800170037002e
:1039c0000e1890009e1890002e199000be199000bd
:1039d00079fa07000205be000004be00a7fa07003e
:1039e0000002be000203be000e1890009e18900058
:1039f0002e199000be1990005dfb07000002be006a
:103a00000203be00041f9800151f9800261f98008f
:103a1000371f98000002eb0024079800019626004b
:103a200010c0b300080037003102be003103be00f1
:103a30000440e10005c8e10006d0e10007d8e1003c
:103a4000030039000040e800f44f5000f6ff3a0050
:103a50008e2290002e0290004e1b90000482520095
:103a6000004f7800860252000002fb0004825200e0
:103a700004279800e00f5300020032000402e9001e
:103a800004279800ce239000638263000300320075
:103a90000e2090000000e90000279800ce20900042
:103aa000648260004500320062826000e182600052
:103ab000e00f5200110032003c0290000404b200fa
:103ac000080032001c037800b4c2b300e08f52003b
:103ad0000100320004c2e800044b7800060ee80042
:103ae00015003700b0022000e08f520001003200c4
:103af0000080e8008c0078000c003700e08f520056
:103b0000200032003c0290000404b20005003200a4
:103b10009c02780004c2b300844a7800050ee800d5
:103b2000050037008c007800000220004ef80700e6
:103b3000e10f4000130032008d06e800110037004d
:103b40003c0290000404b200040032001c02780021
:103b5000054a7800040ee80007003700152f98008a
:103b60008c007800000320003ff807009e2a900098
:103b7000e10f4000010032008d06e8008904e900f1
:103b80000600370038179800491798005a17980010
:103b90006b1798008e24900005c3b300e08f54008b
:103ba000e7ff3c00092798003e149000ce149000d7
:103bb0005e159000ee15900070003700ce2090004a
:103bc000688260001f003a00110037003c0290003c
:103bd0000404b200040032001c027800054a780098
:103be000040ee80007003700152f98008c007800bd
:103bf000000220001cf807009e2a9000e10f400000
:103c0000010032008d06e8008904e9000600370053
:103c100038179800491798005a1798006b179800a2
:103c20008e24900005c2b300e08f5400e7ff3c00f3
:103c3000092798003e149000ce1490005e15900065
:103c4000ee159000ce20900062826000e18260005c
:103c5000e00f5200110032003c0290000404b20058
:103c6000080032001c037800b4c2b300e08f520099
:103c70000100320004c2e800044b7800060ee800a0
:103c80003d003700b0022000e08f520001003200fa
:103c90000080e8008c00780034003700e08f52008c
:103ca000360032003c0290000404b20005003200ed
:103cb0009c02780004c2b300844a7800050ee80034
:103cc0002d0037008c00780000022000270037000c
:103cd0003c0290008502fb000404b2001300320095
:103ce00083952600c32add00858241001c017800ef
:103cf0005503be004502be00321798000800be0002
:103d00000a01be0051fb0700a400200005002000ae
:103d10006033b80056fb07003e12900005c3b300a5
:103d2000054a4000040ee80013003700869526007f
:103d3000c32add00850243000800be000a01be0060
:103d40005503be004502be0040fb0700a400200052
:103d5000050020006033b80045fb07008c007800a8
:103d6000040320000002420004007800bef70700b0
:103d7000e10f4000010032008d06e8001e4278008d
:103d80008442e900054f7800e04f5200d0ff3a002e
:103d9000110037003c0290000404b200040032001d
:103da0001c027800084a7800040ee800050037007d
:103db0008c00780000032000abf70700e10f400003
:103dc000010032008d06e8002e0290000402e90096
:103dd000240798000100370008c3b3002e029000aa
:103de000e00f5200ebff3c00ce1b9000f28f53001f
:103df0000300340024c1b300044f780002003700f0
:103e00000e789000004f78009e427800ce18900007
:103e10000502fb000482500034179800e0cf5200e6
:103e20000e0032003c0290000404b2000500320093
:103e30001c027800e5c2b300054a7800040ee800d1
:103e4000050037008c007800e002200086f70700ac
:103e5000e10f4000010032008d06e8001e407800ae
:103e60007dfc07000002be000203be000e18900099
:103e70009e1890002e199000be199000c7f90700f7
:103e80004df90700340037003c0290008502fb002a
:103e90000404b2001300320083952600c32add001b
:103ea000858241001c0178005503be004502be001a
:103eb000421f98000800be000a01be00e3fa070096
:103ec000a4002000050020006033b800e8fa0700d5
:103ed0004e1a900005c3b300054a4000040ee800e6
:103ee0001300370086952600c32add0085024300b3
:103ef0000800be000a01be005503be004502be0018
:103f0000d2fa0700a4002000050020006033b800aa
:103f1000d7fa07008c00780004032000000242005a
:103f20000400780050f70700e10f40000100320064
:103f30008d06e800879526001e02fb004322dd0067
:103f4000048243000800be000a01be005403be0004
:103f50004402be00c6fa07001e4278000205be00f9
:103f60000004be008442e900054f7800e04f520093
:103f7000c5ff3a0011003700bc0290000504b200f2
:103f8000040032009c027800844a7800050ee800a4
:103f900007003700042f98008c00780000032000f1
:103fa00031f707000e2a9000e10f400001003200b7
:103fb0008d06e8008904e90006003700be14900071
:103fc000401f9800511f9800621f9800731f9800af
:103fd00004c3b300e08f5400e7ff3a00ce20900006
:103fe0004e1c9000de1c90006e1d9000fe1d900087
:103ff000e8826000e10132000e219000e00f5100e4
:10400000de01340048279800592798006a27980055
:104010007b2798008e24900004c2b300bc0290005d
:104020000504b200040032009c027800844a780043
:10403000050ee80007003700042f98008c00780078
:104040000002200008f707000e2a9000e10f400050
:10405000010032008d06e8008904e900efff3a0014
:10406000c2013700ce209000e08f500005003d00d7
:104070007e1190004205be004204be0072179800f7
:1040800015003700ce219000f08261000c00320054
:104090007e1090004003be00640798004607980019
:1040a0005707980074079800701798004e04900006
:1040b000de0490006e059000fe05900006003700bb
:1040c0007e119000420478007217980009002000c9
:1040d0000a0020000b002000ce199000e08f510054
:1040e00009003a0014002000441f9800e00f54001b
:1040f000e08f5c00e00f5d00e08f5d0002003200a9
:104100008002eb00451f98004e2390000408200019
:10411000060cb200560f9800840f530010003200b6
:10412000040c2000840f530021003a000196260061
:1041300010c0b3003102be003103be000440e100f4
:1041400005c8e10006d0e10007d8e10017003900fa
:104150000040e800f44f5000f6ff3a00130037002b
:1041600010c0b30004012000050020006033b80037
:104170000440e10005c8e10006d0e10007d8e100f5
:104180000a003900410020000402d0008582d200dc
:104190000683d2008783d2008100e900faff3a004b
:1041a0000040e800f04f5000f1ff3a00004f780067
:1041b0001e02fb004e199000820f520002003d00cb
:1041c000024f780004003700ce199000848f510010
:1041d00001003d00441f98000e229000e00f5200a5
:1041e00006003200ce22900063826200030032009b
:1041f0000e2390000603e90006279800040024001f
:10420000ce23900004826300090032000e2090004b
:10421000ce189000810f50000300340001005000c0
:1042200000279800020037000001eb0002279800e9
:104230008001eb001e02fb00031f98008e229000fd
:10424000848f52000200340004825200041f980040
:104250004e2390006402630045003200e2026300d6
:1042600061026300e08f520011003200bc02900036
:104270000504b200080032009c027800b6c2b30008
:10428000e00f52000100320006c3e800864a7800c1
:10429000050ee80015003700b0022000e00f5200c4
:1042a000010032000080e8008c0078000c0037002c
:1042b000e00f52000e0032003c0290000404b200f5
:1042c000050032001c02780005c2b300054a7800e0
:1042d000040ee800050037008c0078000002200082
:1042e00061f60700e10f4000010032008d06e80092
:1042f0008e1b9000e08f5300650032000827980065
:10430000192798002a2798003b27980005c3b30077
:10431000870478003c0290000404b20004003200dc
:104320001c027800054a7800040ee80007003700f8
:10433000152f98008c007800000320004af6070033
:104340009e2a9000e10f4000010032008d06e80037
:104350008904e900efff3a00091f98000e2490003d
:104360009e2490002e259000be2590004800370026
:104370008e189000e08f50001f0032004e219000f8
:10438000680261001c003a0008279800192798006d
:104390002a2798003b2798008e1c900005c2b30086
:1043a0003c0290000404b200040032001c027800b9
:1043b000054a7800040ee80007003700152f980022
:1043c0008c0078000002200027f607009e2a90004b
:1043d000e10f4000010032008d06e8008904e90089
:1043e000efff3a00091f98000e2490009e249000d1
:1043f0002e259000be259000ce209000e282600025
:1044000061826000e08f520011003200bc02900017
:104410000504b200080032009c027800b6c2b30066
:10442000e00f52000100320006c3e800864a78001f
:10443000050ee80015003700b0022000e00f520022
:10444000010032000080e8008c0078000c0037008a
:10445000e00f52000e0032003c0290000404b20053
:10446000050032001c02780005c2b300054a78003e
:10447000040ee800050037008c00780000022000e0
:10448000f9f50700e10f4000010032008d06e80059
:104490004e199000849526008202e90008279800b2
:1044a000192798002a2798003b279800c229dd0089
:1044b000c32add00030f98000482420034179800dd
:1044c0004e2290007002620034079800830037008b
:1044d000ce189000040820008100e9005e099000d9
:1044e000411f9800840f510056003200040c200038
:1044f000840f510063003a00ce219000e08f5100fc
:104500001f003d003e1290000e2090009e20900063
:104510002e219000be2190003404be002405be0070
:104520000802be000a03be0048f907000802be00e8
:104530000a03be00004f78000000fb00cf80de00c1
:104540000101780082017800b1f907000e22900085
:104550009e2290002e239000be2390000002520065
:1045600081825a0002035b0083835b00042798006a
:104570001527980026279800372798002e00370027
:10458000be029000e08f5200220032003e139000e5
:104590000e2290009e2290003604be002605be002a
:1045a0000400be00042f9800152f98000801be00db
:1045b00071f807000801be00004f78000000fb0002
:1045c000cf80de007cf807000e2a90009e2a900023
:1045d0000001520081815a000002eb00120f980086
:1045e000230f9800440f98008001eb00330f9800d0
:1045f0001e089000ae0890003e099000ce09900081
:104600000027980011279800222798003327980048
:1046100009003700be1090000e21900011027800b2
:10462000110009000481d800a40020001100090035
:104630000480d800014f780003c3b3001ecf4100af
:10464000100037000e2290009e2290002e23900032
:10465000be2390000e08900031a226000000e90061
:10466000050033008703d1000683d3008582d30081
:104670000482d300f9ff37006f026200010242009a
:10468000144f78003c0290000404b200070032008e
:104690009c0278001e427800844a7800050ee800eb
:1046a000e04f520006003a00060037001e00fb00f3
:1046b0008c0078006cf50700e10f4000010032002b
:1046c0008d06e8000e099000be11900064015100b3
:1046d000e8815100020f9800331798004e1a90009d
:1046e000e00f52007aff3a004e2390000e24900013
:1046f0009e2490002e259000be259000e8026300c5
:104700001e0032008e1b9000e08f53001b0034000f
:1047100048279800592798006a2798007b27980017
:1047200004c2b30087047800bc0290000504b20004
:10473000040032009c027800844a7800050ee800ec
:1047400007003700042f98008c007800000220003a
:1047500045f507000e2a9000e10f400001003200ed
:104760008d06e8008904e900efff3a004e2490002e
:10477000de2490006e259000fe259000ee0890004b
:1047800011407800004f7800e04f50009dfa3a0049
:104790000d0078004f06be004f05be004f04be005e
:0847a0000080fa000000060091
:020000040000fa
:1047a8000000fa003c0a0700650a0700b90a07007a
:1047b800002ea900100ea900102ea900104ea90065
:1047c800106ea900042ea800007d2000d80a07005a
:1047d800042ea900401f2000d50a0700a451830019
:1047e800e00f52002e003a000002eb00243f8b003d
:1047f80027003700c0472f00faf40700be00070063
:1048080000027800143f8b00140ea800163f8300a6
:104818003433230035f32300020820000110200060
:10482800060078002d01070000027800443f8b0045
:10483800453f830004032000848f52000e0032009d
:10484800443f8300343f8b0007003700a4492f0002
:10485800841f7800fbf407008f87e900343f83004a
:104868000402e800343f8b00353f8300f402200047
:10487800848f5200f5ff3600f04c2f00d9f4070062
:10488800140ea900243f83000402e800243f8b0093
:10489800243f8300ee0f5200d6ff3600ffff37009b
:1048a800a4518300e10f520090003a00647f260073
:1048b8008042eb00054a7800880037008e00070028
:1048c80000027800143f8b00042ea800163f8300d6
:1048d8003433230035f323000208200001102000a0
:1048e80006007800fd00070000027800443f8b00b6
:1048f800453f830004032000848f520021003200ca
:10490800443f8300343f8b001a0037000002eb005d
:10491800243f8b0011003700343f8300ed22b9009b
:1049280084027800243f8300048242006123b80097
:10493800423add00ce32de00850272004232dd00ee
:1049480026e22500060342006022b800048bbe0060
:10495800243f83000402e800243f8b00243f8300a7
:10496800ec0f5200ecff3600343f83000402e800ed
:10497800343f8b00353f8300f4022000848f5200bf
:10498800e2ff36005206070000427800757f2600d5
:10499800844a7800042ea900747f26001442780007
:1049a800e04f520007003a001006200099f4070073
:1049b800140ea800142ea900144ea900146ea90004
:1049c80041003700747f260014427800e14f5200fe
:1049d80007003a00200620008ef40700140ea900f4
:1049e800142ea800144ea900146ea9003600370032
:1049f800747f260014427800e24f520007003a0004
:104a08003006200083f40700140ea900142ea90014
:104a1800144ea800146ea9002b003700747f2600de
:104a280014427800e34f520007003a004006200085
:104a380078f40700140ea900142ea900144ea9003a
:104a4800146ea80020003700747f260014427800f6
:104a5800e44f520007003a00700620006df407008a
:104a6800140ea900142ea900144ea900146ea90052
:104a780015003700747f260014427800e54f520075
:104a880007003a005006200062f40700140ea80040
:104a9800142ea800144ea900146ea9000a003700ad
:104aa800747f260014427800e64f520006003a0050
:104ab8006006200057f40700140ea900142ea90060
:104ac800144ea800146ea800647f260014427800d3
:104ad8008442e800647f2600054a7800647f260047
:104ae80014427800fd4f520074ff3600040078002d
:104af8000080fa00000006000400fa000002eb0043
:104b0800040f78000002eb00943f8b000002eb00da
:104b1800a43f8b002023a800a0002000f60907006e
:104b28002023a9000000000004198000610262002f
:104b3800e00f5200fcff3200041880004422dd0020
:104b48001407980020082000eb0907009e02900037
:104b580074a92300848f5200eeff34002023a8009c
:104b6800a0002000e40907002023a900000000009d
:104b78000419800061026200e00f5200fcff32005d
:104b8800041880004422dd00140798001e027800f3
:104b9800050020000402420085824a002600210008
:104ba800060242009e029000050a78001e0fe800e7
:104bb80020082000d0090700041880004422dd00e6
:104bc80084027800943f8300848f520003003400ed
:104bd800041880004422dd00943f8b0004188000f4
:104be8004422dd0084027800a43f8300848f5200b1
:104bf80003003d00041880004422dd00a43f8b0020
:104c0800f47022009e027800848f5200d3ff360091
:104c18001e0fe9001e027800050020000402420071
:104c280085824a002600210006024200940278008c
:104c3800150798009e029000f46a2300848f5200a2
:104c4800f3ff34001e027800040078000080fa00a8
:104c5800000006000400fa00881f7800008fbe00dc
:104c680018c0b3006011b8001e00be0043f1070071
:104c780000027800e00f5200010035000044eb000c
:104c8800e04f5400090032000200200003f0230026
:104c98001e00be0006f007000002be000400be00b1
:104ca80061f007000002be00080037000200200083
:104cb80003f023001e00be00feef07000002be0046
:104cc8000400be0057f107000002be000400be0049
:104cd8004f0478000080fa00000006005200fa0035
:104ce800889fbe008a9fbe004027980051279800e1
:104cf8006227980074279800052f98000002eb009f
:104d0800040f7800a43f83008402ea00943f8300e4
:104d1800848f520003003400a43f83000402ea0099
:104d2800943f8b000002eb0014079800ae04370094
:104d38000002eb0024079800950037002e0290002f
:104d4800e00f520014003a001e029000e00f5200db
:104d580011003a0014808000cfa2de000400be00db
:104d68002bf107000004be00943f8300cfa2de00b1
:104d78000400be0026f107000002be000401be00c8
:104d88000800be0032f007000002be004407980089
:104d98005507980039003700ae0290001e029000b7
:104da80004824200cfa2de000402420085824a004b
:104db800260021000602420014027800cfa2de007d
:104dc8000400be0012f107000004be00943f8300f7
:104dd800cfa2de000400be000df107000002be00f5
:104de8000401be000800be0019f007000002be0062
:104df8000404be00ae0290001e029000048242002d
:104e08000402e900cfa2de000402420085824a00c3
:104e1800260021000602420014027800cfa2de001c
:104e28000400be00faf007000005be00943f8300ae
:104e3800cfa2de000400be00f5f007000002be00ad
:104e48000401be000a00be0001f007000002be0017
:104e58007e2190008e2990000400be00c7f1070053
:104e68000002be000401be000800be0091ef07006a
:104e78000002be0044079800550798002e029000d3
:104e8800cfa2de000400be00e1f007000002be0071
:104e980002fd2000930c24000400be00b7f10700b7
:104ea8000002be000404be005e229000050020003f
:104eb8000400be00d9f007000002be000401be00d5
:104ec8000800be00e2ef07000002be000400be00ba
:104ed800ddef07000002be00f2512800b3ee230008
:104ee8000400be00a5f107000002be000401be00d8
:104ef80010d72300a1f023006def07000002be00c9
:104f08004e019000de0190000400be009bf10700f6
:104f18000002be0002002000030824000400be00b6
:104f2800cbef07000002be000400be0084ee0700bd
:104f38002e0290006123b900423add00ce32de0035
:104f4800850272004232dd00068027000602420018
:104f5800000a78002e0290006123b900423add0071
:104f6800ce32de00850272004232dd00620242006b
:104f7800e0824a0006802700060242008002eb0019
:104f8800050a78002e0290000402e8002407980021
:104f9800de2290002e029000848f520067ff3c00b2
:104fa8001420200084027800c4e72e0085017800d0
:104fb800040178000180270080002000daed070056
:104fc8000180270080002000b9ed07000002eb00f7
:104fd80024079800520037002e0290006123b90080
:104fe800423add00ce32de00850272004232dd0038
:104ff80006802700060242001402780004007800a8
:1050080021ef07000004be002e0290006123b900c2
:10501800423add00ce32de00850272004232dd0007
:105028000680270006024200140278000400780077
:1050380015ef07000002be000401be000800be0014
:105048004ef107000002be000404be002e029000cc
:105058006123b900423add00ce32de0085027200db
:105068004232dd0062024200e0824a0006802700e8
:1050780006024200140278000400780002ef0700dc
:105088000005be002e0290006123b900423add00ff
:10509800ce32de00850272004232dd00620242003a
:1050a800e0824a00068027000602420014027800c7
:1050b80004007800f4ee07000002be000401be0000
:1050c8000a00be002df107000002be000401be0068
:1050d8000800be00f7ee07000002be000400be0094
:1050e800c3f107000002be000400be0014ee070072
:1050f8002e0290006123b900423add00ce32de0074
:10510800850272004232dd00068027000602420056
:10511800000a78002e0290000402e8002407980094
:10512800ae029000f40f2000848f5200aaff3400d2
:105138000002eb0024079800370337002e02900086
:10514800cfa2de000400be0031f007000002be005e
:10515800f2c12d00a33424000400be0007f10700ab
:105168000002be0002002e00c34824000400be0056
:1051780037ef07000002be000400be0076ef07000c
:105188000002be000200200003f823000400be0055
:10519800c7ee07000002be0002002000f342240010
:1051a8000400be00f5f007000002be000404be00c3
:1051b8005e229000050020000400be0017f00700e2
:1051c8000002be0002002000030024000400be000c
:1051d8001fef07000002be000401be00000020000f
:1051e800a15f24001aef07000002be000401be0000
:1051f8000800be0016ef07000002be000400be0053
:1052080094fe07000002be000400be00dfef0700a6
:105218000002be00040f98002e0290000482e800ed
:10522800cfa2de000400be00f9ef07000002be00b6
:10523800f2c12d00a33424000400be00cff0070003
:105248000002be0002002e00c34824000400be0075
:10525800ffee07000002be000400be003eef07009c
:105268000002be000200200003f823000400be0074
:105278008fee07000002be0002002000f342240067
:105288000400be00bdf007000002be000404be001a
:105298005e229000050020000400be00dfef07003a
:1052a8000002be0002002000030024000400be002b
:1052b800e7ee07000002be000401be000000200067
:1052c800a15f2400e2ee07000002be000401be0058
:1052d8000800be00deee07000002be000400be00ab
:1052e8005cfe07000002be000400be00a7ef070036
:1052f8000002be00140f98006022b80064079800ee
:10530800750798002e029000cfa2de00c60020008c
:1053180007002000860f5200878f5a00a5023e0022
:10532800040601000c0037003e003700700037000b
:10533800a2003700d40037000601370038013700d3
:105348006a0137009c013700ce01370000023700a0
:1053580032023700640237000e08900030079800c8
:105368002b003700be0290000e0a90000482520003
:10537800cfa2de000402420085824a00c6172f0031
:105388000602420014027800040078003eee07008e
:105398000004be003e0290006123b900423add00dd
:1053a800ce32de00850272004232dd000680270020
:1053b80006024200140278000400780032ee07006a
:1053c8000002be0002002000a34724000400be0023
:1053d8006af007000002be000401be000800be001b
:1053e80066f007000002be000401be006e009000d7
:1053f800fe0090002fee07000002be006407980030
:10540800750798003e0290000402e80034079800ef
:10541800be0290001e0a9000848f5200d1ff340013
:10542800640237008e089000310798002b0037007f
:10543800be0290000e0a900004825200cfa2de0045
:105448000402420085824a0086182f0006024200a4
:1054580014027800040078000bee07000004be0078
:105468003e0290006123b900423add00ce32de00f0
:10547800850272004232dd000680270006024200e3
:105488001402780004007800ffed07000002be0057
:1054980002002000a34724000400be0037f00700e4
:1054a8000002be000401be000800be0033f0070081
:1054b8000002be000401be006e009000fe009000d5
:1054c800fced07000002be0064079800750798000d
:1054d8003e0290000402e80034079800be029000e3
:1054e8001e0a9000848f5200d1ff34003102370029
:1054f8000e0a9000340798002b003700be02900077
:105508000e0a900004825200cfa2de00040242007c
:1055180085824a0066192f000602420014027800ac
:1055280004007800d8ed07000004be003e02900099
:105538006123b900423add00ce32de0085027200f6
:105548004232dd000680270006024200140278007d
:1055580004007800cced07000002be000200200025
:10556800a34724000400be0004f007000002be00a8
:105578000401be000800be0000f007000002be00e3
:105588000401be006e009000fe009000c9ed070007
:105598000002be0064079800750798003e0290005c
:1055a8000402e80034079800be0290001e0a90002a
:1055b800848f5200d1ff3400fe0137000e0b90009b
:1055c800360798002b003700be0290000e0a9000a4
:1055d80004825200cfa2de000402420085824a0003
:1055e800661a2f00060242001402780004007800b0
:1055f800a5ed07000004be003e0290006123b9003b
:10560800423add00ce32de00850272004232dd0011
:105618000680270006024200140278000400780081
:1056280099ed07000002be0002002000a3472400f5
:105638000400be00d1ef07000002be000401be0056
:105648000800be00cdef07000002be000401be0046
:105658006e009000fe00900096ed07000002be006c
:1056680064079800750798003e0290000402e8005d
:1056780034079800be0290001e0a9000848f5200e2
:10568800d1ff3400cb0137008e0b9000370798000c
:105698002b003700be0290000e0a900004825200d0
:1056a800cfa2de000402420085824a00861b2f003a
:1056b80006024200140278000400780072ed070028
:1056c8000004be003e0290006123b900423add00aa
:1056d800ce32de00850272004232dd0006802700ed
:1056e80006024200140278000400780066ed070004
:1056f8000002be0002002000a34724000400be00f0
:105708009eef07000002be000401be000800be00b4
:105718009aef07000002be000401be006e00900070
:10572800fe00900063ed07000002be0064079800c9
:10573800750798003e0290000402e80034079800bc
:10574800be0290001e0a9000848f5200d1ff3400e0
:10575800980137000e089000300798002b0037009a
:10576800be0290000e0a900004825200cfa2de0012
:105778000402420085824a00e61c2f00060242000d
:1057880014027800040078003fed07000004be0012
:105798003e0290006123b900423add00ce32de00bd
:1057a800850272004232dd000680270006024200b0
:1057b800140278000400780033ed07000002be00f0
:1057c80002002000a34724000400be006bef07007e
:1057d8000002be000401be000800be0067ef07001b
:1057e8000002be000401be006e009000fe009000a2
:1057f80030ed07000002be006407980075079800a6
:105808003e0290000402e80034079800be029000af
:105818001e0a9000848f5200d1ff340065013700c2
:105828008e089000310798002b003700be029000c8
:105838000e0a900004825200cfa2de000402420049
:1058480085824a00861e2f00060242001402780054
:10585800040078000ced07000004be003e02900032
:105868006123b900423add00ce32de0085027200c3
:105878004232dd000680270006024200140278004a
:105888000400780000ed07000002be0002002000be
:10589800a34724000400be0038ef07000002be0042
:1058a8000401be000800be0034ef07000002be007d
:1058b8000401be006e009000fe009000fdec0700a1
:1058c8000002be0064079800750798003e02900029
:1058d8000402e80034079800be0290001e0a9000f7
:1058e800848f5200d1ff3400320137000e0a900035
:1058f800340798002b003700be0290000e0a900073
:1059080004825200cfa2de000402420085824a00cf
:1059180066202f0006024200140278000400780076
:10592800d9ec07000004be003e0290006123b900d4
:10593800423add00ce32de00850272004232dd00de
:10594800068027000602420014027800040078004e
:10595800cdec07000002be0002002000a34724008f
:105968000400be0005ef07000002be000401be00ef
:105978000800be0001ef07000002be000401be00df
:105988006e009000fe009000caec07000002be0006
:1059980064079800750798003e0290000402e8002a
:1059a80034079800be0290001e0a9000848f5200af
:1059b800d1ff3400ff0037000e0b90003607980027
:1059c8002b003700be0290000e0a9000048252009d
:1059d800cfa2de000402420085824a00a6222f00e0
:1059e800060242001402780004007800a6ec0700c2
:1059f8000004be003e0290006123b900423add0077
:105a0800ce32de00850272004232dd0006802700b9
:105a18000602420014027800040078009aec07009d
:105a28000002be0002002000a34724000400be00bc
:105a3800d2ee07000002be000401be000800be004e
:105a4800ceee07000002be000401be006e0090000a
:105a5800fe00900097ec07000002be006407980063
:105a6800750798003e0290000402e8003407980089
:105a7800be0290001e0a9000848f5200d1ff3400ad
:105a8800cc0037008e0b9000370798002b003700aa
:105a9800be0290000e0a900004825200cfa2de00df
:105aa8000402420085824a0066252f000602420051
:105ab800140278000400780073ec07000004be00ac
:105ac8003e0290006123b900423add00ce32de008a
:105ad800850272004232dd0006802700060242007d
:105ae800140278000400780067ec07000002be008a
:105af80002002000a34724000400be009fee070018
:105b08000002be000401be000800be009bee0700b4
:105b18000002be000401be006e009000fe0090006e
:105b280064ec07000002be0064079800750798003f
:105b38003e0290000402e80034079800be0290007c
:105b48001e0a9000848f5200d1ff3400990037005c
:105b58000e089000300798002b003700be02900016
:105b68000e0a900004825200cfa2de000402420016
:105b780085824a00a6282f000602420014027800f7
:105b88000400780040ec07000004be003e029000cc
:105b98006123b900423add00ce32de008502720090
:105ba8004232dd0006802700060242001402780017
:105bb8000400780034ec07000002be000200200058
:105bc800a34724000400be006cee07000002be00dc
:105bd8000401be000800be0068ee07000002be0017
:105be8000401be006e009000fe00900031ec07003a
:105bf8000002be0064079800750798003e029000f6
:105c08000402e80034079800be0290001e0a9000c3
:105c1800848f5200d1ff3400660037008e08900050
:105c2800310798002b003700be0290000e0a900042
:105c380004825200cfa2de000402420085824a009c
:105c4800662c2f0006024200140278000400780037
:105c58000dec07000004be003e0290006123b9006d
:105c6800423add00ce32de00850272004232dd00ab
:105c7800068027000602420014027800040078001b
:105c880001ec07000002be0002002000a347240028
:105c98000400be0039ee07000002be000401be0089
:105ca8000800be0035ee07000002be000401be0079
:105cb8006e009000fe009000feeb07000002be00a0
:105cc80064079800750798003e0290000402e800f7
:105cd80034079800be0290001e0a9000848f52007c
:105ce800d1ff3400330037000e0a900034079800c3
:105cf8002b003700be0290000e0a9000048252006a
:105d0800cfa2de000402420085824a00e6302f005e
:105d1800060242001402780004007800daeb07005b
:105d28000004be003e0290006123b900423add0043
:105d3800ce32de00850272004232dd000680270086
:105d4800060242001402780004007800ceeb070037
:105d58000002be0002002000a34724000400be0089
:105d680006ee07000002be000401be000800be00e7
:105d780002ee07000002be000401be006e009000a3
:105d8800fe009000cbeb07000002be0064079800fd
:105d9800750798003e0290000402e8003407980056
:105da800be0290001e0a9000848f5200d1ff34007a
:105db800000000006011b8006e009000fe00900026
:105dc800eeec070000027800e00f520002003a00f3
:105dd8006022b800040037006e009000fe009000ba
:105de8008fed07000002be002e0390006130b9005d
:105df800420bdd00ce03de00870373004203dd00a3
:105e08007403430006034700048bbe002e02900073
:105e18000402e800240798002e029000ec0f5200bc
:105e2800c6fc34000002eb00240798006500370028
:105e38006022b80064079800750798000002eb001c
:105e480034079800430037003e0290006123b900f0
